// Note, this test was generated manually.
>> {"jsonrpc":"2.0","id":1,"method":"debug_getBadBlocks","params":[]}
<< {"jsonrpc":"2.0","id":1,"result":[{"hash":"0xdd84515d59a333cd297d639582a95b91621e45ece126081a49adcc397b1f7f94","block":{"baseFeePerGas":"0xb8e1d0d53","difficulty":"0x1f93d4744955c1","extraData":"0xd883010a08846765746888676f312e31362e33856c696e7578","gasLimit":"0x1c95111","gasUsed":"0x0","hash":"0xdd84515d59a333cd297d639582a95b91621e45ece126081a49adcc397b1f7f94","logsBloom":"0x00000000000000000000000000000000000000000000000000000000000000000000000000000000000000000000000000000000000000000000000000000000000000000000000000000000000000000000000000000000000000000000000000000000000000000000000000000000000000000000000000000000000000000000000000000000000000000000000000000000000000000000000000000000000000000000000000000000000000000000000000000000000000000000000000000000000000000000000000000000000000000000000000000000000000000000000000000000000000000000000000000000000000000000000000000000","miner":"0xba3c53580d80323e52fec05dd873f6e20f4fb3d0","mixHash":"0x4b2b3cad845de179dac7a22b0e08489c0b5feecabedda3c684e1733954e904d0","nonce":"0x2f593aa5616f3b12","number":"0xc9c23e","parentHash":"0xd767d68e6ab3d6a4f9ba99b5c7efb02174681bac01bcbccbd7466779d049ab11","receiptsRoot":"0x56e81f171bcc55a6ff8345e692c0f86e5b48e01b996cadc001622fb5e363b421","sha3Uncles":"0x1dcc4de8dec75d7aab85b567b6ccd41ad312451b948a7413f0a142fd40d49347","size":"0x226","stateRoot":"0xce6fd2f238ff0c6d901d37aceaf1dadae468b182332caa53f8f4d22e74c59aef","timestamp":"0x61404daf","transactions":[],"transactionsRoot":"0x56e81f171bcc55a6ff8345e692c0f86e5b48e01b996cadc001622fb5e363b421","uncles":[]},"rlp":"0xf90223f9021ea0d767d68e6ab3d6a4f9ba99b5c7efb02174681bac01bcbccbd7466779d049ab11a01dcc4de8dec75d7aab85b567b6ccd41ad312451b948a7413f0a142fd40d4934794ba3c53580d80323e52fec05dd873f6e20f4fb3d0a0ce6fd2f238ff0c6d901d37aceaf1dadae468b182332caa53f8f4d22e74c59aefa056e81f171bcc55a6ff8345e692c0f86e5b48e01b996cadc001622fb5e363b421a056e81f171bcc55a6ff8345e692c0f86e5b48e01b996cadc001622fb5e363b421b9010000000000000000000000000000000000000000000000000000000000000000000000000000000000000000000000000000000000000000000000000000000000000000000000000000000000000000000000000000000000000000000000000000000000000000000000000000000000000000000000000000000000000000000000000000000000000000000000000000000000000000000000000000000000000000000000000000000000000000000000000000000000000000000000000000000000000000000000000000000000000000000000000000000000000000000000000000000000000000000000000000000000000000000000000000000000871f93d4744955c183c9c23e8401c95111808461404daf99d883010a08846765746888676f312e31362e33856c696e7578a04b2b3cad845de179dac7a22b0e08489c0b5feecabedda3c684e1733954e904d0882f593aa5616f3b12850b8e1d0d53c0c0"}]}
