- name: eth_sign
  summary: Returns an EIP-191 signature over the provided data.
  params:
    - name: Address
      required: true
      schema:
        $ref: '#/components/schemas/address'
    - name: Message
      required: true
      schema:
        $ref: '#/components/schemas/bytes'
  result:
    name: Signature
    schema:
      $ref: '#/components/schemas/bytes65'
  examples:
    - name: eth_sign example
      params:
        - name: Address
          value: '0x9b2055d370f73ec7d8a03e965129118dc8f5bf83'
        - name: Message
          value: '0xdeadbeaf'
      result:
        name: Signature
        value: '0xa3f20717a250c2b0b729b7e5becbff67fdaef7e0699da4de7ca5895b02a170a12d887fd3b17bfdce3481f10bea41f45ba9f709d39ce8325427b57afcfc994cee1b'
- name: eth_signTransaction
  summary: Returns an RLP encoded transaction signed by the specified account.
  params:
    - name: Transaction
      required: true
      schema:
        $ref: '#/components/schemas/GenericTransaction'
  result:
    name: Transaction result
    schema:
      $ref: '#/components/schemas/SignTransactionResult'
  examples:
    - name: eth_signTransaction example
      params:
        - name: Transaction
          value:
            from: '0x9d8a62f656a8d1615c1294fd71e9cfb3e4855a4f'
            nonce: '0x9'
            to: '0xd46e8dd67c5d32be8058bb8eb970870f07244567'
            gas: '0x76c0'
            gasPrice: '0x9184e72a000'
            value: '0x9184e72a'
            input: '0xd46e8dd67c5d32be8d46e8dd67c5d32be8058bb8eb970870f072445675058bb8eb970870f072445675'
      result:
        name: Transaction result
        value:
          raw: '0xf892098609184e72a0008276c094d46e8dd67c5d32be8058bb8eb970870f07244567849184e72aa9d46e8dd67c5d32be8d46e8dd67c5d32be8058bb8eb970870f072445675058bb8eb970870f07244567526a0839ebaab7774ffdae60d418fc8b4192d2cb861ac31acbb5fef26027d1b8f10aea015396a78493395691c10fccc33ec13f2eeb96a3ba2b4ca1652c91bb2b348d12b'
          tx:
            type: '0x0'
            chainId: '0x1'
            nonce: '0x9'
            to: '0xd46e8dd67c5d32be8058bb8eb970870f07244567'
            gas: '0x76c0'
            gasPrice: '0x9184e72a000'
            value: '0x9184e72a'
            input: '0xd46e8dd67c5d32be8d46e8dd67c5d32be8058bb8eb970870f072445675058bb8eb970870f072445675'
            v: '0x26'
            r: '0x839ebaab7774ffdae60d418fc8b4192d2cb861ac31acbb5fef26027d1b8f10ae'
            s: '0x15396a78493395691c10fccc33ec13f2eeb96a3ba2b4ca1652c91bb2b348d12b'
