// commits a block built from the mempool using testing_commitBlockV1 with null transactions parameter
// speconly: client response is only checked for schema validity.
>> {"jsonrpc":"2.0","id":1,"method":"eth_getBlockByNumber","params":["latest",true]}
<< {"jsonrpc":"2.0","id":1,"result":{"baseFeePerGas":"0x11836ef","blobGasUsed":"0x0","difficulty":"0x0","excessBlobGas":"0x0","extraData":"0x746573745f6e616d65","gasLimit":"0xbe2d36f","gasUsed":"0x5208","hash":"0xfc9f5dd040afacf4aec3de317befb4059227f352bc1f1425ea8ae3ad1a5b28d8","logsBloom":"0x00000000000000000000000000000000000000000000000000000000000000000000000000000000000000000000000000000000000000000000000000000000000000000000000000000000000000000000000000000000000000000000000000000000000000000000000000000000000000000000000000000000000000000000000000000000000000000000000000000000000000000000000000000000000000000000000000000000000000000000000000000000000000000000000000000000000000000000000000000000000000000000000000000000000000000000000000000000000000000000000000000000000000000000000000000000","miner":"0x0000000000000000000000000000000000000000","mixHash":"0x1111111111111111111111111111111111111111111111111111111111111111","nonce":"0x0000000000000000","number":"0x39","parentBeaconBlockRoot":"0xcf8e0d4e9587369b2301d0790347320302cc0943d5a1884365149a42212e8822","parentHash":"0xb8668d5b519d2709ffdf214111181d20121ded76821f60a1f6a8255299c4840c","receiptsRoot":"0x005fb2a0d0c8a6f3490f9594e6458703eea515262f1b69a1103492b61e8d0ee2","requestsHash":"0xe3b0c44298fc1c149afbf4c8996fb92427ae41e4649b934ca495991b7852b855","sha3Uncles":"0x1dcc4de8dec75d7aab85b567b6ccd41ad312451b948a7413f0a142fd40d49347","size":"0x2e8","stateRoot":"0xe1c81f0297585a139492b68bb96e0f299b5448f9800fb4810f5f5e5dbfa0d984","timestamp":"0x240","transactions":[{"blockHash":"0xfc9f5dd040afacf4aec3de317befb4059227f352bc1f1425ea8ae3ad1a5b28d8","blockNumber":"0x39","blockTimestamp":"0x240","from":"0x16c57edf7fa9d9525378b0b81bf8a3ced0620c1c","gas":"0x5208","gasPrice":"0x11838e3","maxFeePerGas":"0x14040bc","maxPriorityFeePerGas":"0x1f4","hash":"0xe4db2b1921a8fba32132c5b13e6de8170f0bcf7fcb6d149f24eada3ec137996f","input":"0x","nonce":"0x0","to":"0x7dcd17433742f4c0ca53122ab541d0ba67fc27df","transactionIndex":"0x0","value":"0x3e8","type":"0x2","accessList":[],"chainId":"0xc72dd9d5e883e","v":"0x1","r":"0x25678bdf2515065155872b26843bc1c2cb4183c5544426149e13686c827a6c3b","s":"0x6e7121a9b49731acc50ab0d9cd31a2eb5e3e70ab43c9eadacada2c13b71e2978","yParity":"0x1"}],"transactionsRoot":"0x5350c310b51d31d54d003258bbbe2a43b06471e3d06b0107998d11cee6ec67d3","uncles":[],"withdrawals":[],"withdrawalsRoot":"0x56e81f171bcc55a6ff8345e692c0f86e5b48e01b996cadc001622fb5e363b421"}}
>> {"jsonrpc":"2.0","id":2,"method":"eth_sendRawTransaction","params":["0x02f871870c72dd9d5e883e808201f484011838e3825208947dcd17433742f4c0ca53122ab541d0ba67fc27df8203e880c001a0b0481969ba5728e1d5487dcfa6bc796c111dd7ded65481be26b35824c57dfc87a0324ed83473bde518e83aa43d968f77fd3ffa4bc7f2cfbbf0c73a3c02c615af85"]}
<< {"jsonrpc":"2.0","id":2,"result":"0xa3106b24575ad20e84fe65a546f0ae4179a77924f678af1aeb678c44d3accf79"}
>> {"jsonrpc":"2.0","id":3,"method":"testing_commitBlockV1","params":[{"parentBeaconBlockRoot":"0xcf8e0d4e9587369b2301d0790347320302cc0943d5a1884365149a42212e8822","prevRandao":"0x1111111111111111111111111111111111111111111111111111111111111111","suggestedFeeRecipient":"0x0000000000000000000000000000000000000000","timestamp":"0x24c","withdrawals":[]},null,"0x"]}
<< {"jsonrpc":"2.0","id":3,"result":"0x252fb32c91901ab7bdcdc491f4bd0981c662801a980f388be780cc76201b4032"}
>> {"jsonrpc":"2.0","id":4,"method":"eth_getBlockByNumber","params":["latest",true]}
<< {"jsonrpc":"2.0","id":4,"result":{"baseFeePerGas":"0xf531f5","blobGasUsed":"0x0","difficulty":"0x0","excessBlobGas":"0x0","extraData":"0x","gasLimit":"0xbdfdabc","gasUsed":"0x5258","hash":"0x252fb32c91901ab7bdcdc491f4bd0981c662801a980f388be780cc76201b4032","logsBloom":"0x00000000000000000000000000000000000000000000000000000000000000000000000000000000000000000000000000000000000000000000000000000000000000000000000000000000000000000000000000000000000000000000000000000000000000000000000000000000000000000000000000000000000000000000000000000000000000000000000000000000000000000000000000000000000000000000000000000000000000000000000000000000000000000000000000000000000000000000000000000000000000000000000000000000000000000000000000000000000000000000000000000000000000000000000000000000","miner":"0x0000000000000000000000000000000000000000","mixHash":"0x1111111111111111111111111111111111111111111111111111111111111111","nonce":"0x0000000000000000","number":"0x3a","parentBeaconBlockRoot":"0xcf8e0d4e9587369b2301d0790347320302cc0943d5a1884365149a42212e8822","parentHash":"0xfc9f5dd040afacf4aec3de317befb4059227f352bc1f1425ea8ae3ad1a5b28d8","receiptsRoot":"0x3f39aa82f0c4d04316b65874dcf09cc6a7bb49b48d0415a1b002ec2ee34ab921","requestsHash":"0xe3b0c44298fc1c149afbf4c8996fb92427ae41e4649b934ca495991b7852b855","sha3Uncles":"0x1dcc4de8dec75d7aab85b567b6ccd41ad312451b948a7413f0a142fd40d49347","size":"0x2d6","stateRoot":"0xac10b3e1858b658676015e3ea73348096c6cd91ba926767bd07cac91c4fe0ae4","timestamp":"0x24c","transactions":[{"blockHash":"0x252fb32c91901ab7bdcdc491f4bd0981c662801a980f388be780cc76201b4032","blockNumber":"0x3a","blockTimestamp":"0x24c","from":"0x0c2c51a0990aee1d73c1228de158688341557508","gas":"0x61a8","gasPrice":"0x1a21398","hash":"0xb55b6dfd4ba0bb2b00283b0e84cda496c90bc7c5ae9025e07edc3a7fbaf6a269","input":"0x5544","nonce":"0x0","to":"0xaa00000000000000000000000000000000000000","transactionIndex":"0x0","value":"0xa","type":"0x0","chainId":"0xc72dd9d5e883e","v":"0x18e5bb3abd109f","r":"0x73fbe7ff7e74339e7cc61fb3cb3f7630cd3f1d5fef653d7297654b2d22894dae","s":"0x42a188d30f35f19408c73c803bc1e9e17ce129c457e31fd2a368b54507af2f4c"}],"transactionsRoot":"0xdc17340460e3f460a02a53e43e2cb99569094bbdb59a030cf890855844ab60dd","uncles":[],"withdrawals":[],"withdrawalsRoot":"0x56e81f171bcc55a6ff8345e692c0f86e5b48e01b996cadc001622fb5e363b421"}}
