// commits a block built from the mempool using testing_commitBlockV1 with null transactions parameter
// speconly: client response is only checked for schema validity.
>> {"jsonrpc":"2.0","id":1,"method":"eth_getBlockByNumber","params":["latest",true]}
<< {"jsonrpc":"2.0","id":1,"result":{"baseFeePerGas":"0x3a9f13d","blobGasUsed":"0x0","difficulty":"0x0","excessBlobGas":"0x0","extraData":"0x746573745f6e616d65","gasLimit":"0x47b1e3e","gasUsed":"0x5208","hash":"0xff580b04a9b17f9a9271b88c6eab3139f4a965de24a08c9c4eea222a9d0ae6fe","logsBloom":"0x00000000000000000000000000000000000000000000000000000000000000000000000000000000000000000000000000000000000000000000000000000000000000000000000000000000000000000000000000000000000000000000000000000000000000000000000000000000000000000000000000000000000000000000000000000000000000000000000000000000000000000000000000000000000000000000000000000000000000000000000000000000000000000000000000000000000000000000000000000000000000000000000000000000000000000000000000000000000000000000000000000000000000000000000000000000","miner":"0x0000000000000000000000000000000000000000","mixHash":"0x1111111111111111111111111111111111111111111111111111111111111111","nonce":"0x0000000000000000","number":"0x30","parentBeaconBlockRoot":"0xcf8e0d4e9587369b2301d0790347320302cc0943d5a1884365149a42212e8822","parentHash":"0x2676f95f2fbac4fbee8ef8c43db1d60271d4e62fb248977231a1238af9913b83","receiptsRoot":"0x005fb2a0d0c8a6f3490f9594e6458703eea515262f1b69a1103492b61e8d0ee2","requestsHash":"0xe3b0c44298fc1c149afbf4c8996fb92427ae41e4649b934ca495991b7852b855","sha3Uncles":"0x1dcc4de8dec75d7aab85b567b6ccd41ad312451b948a7413f0a142fd40d49347","size":"0x2e8","stateRoot":"0xcd29915bf19a7c4eb3558c8dda426e1281af3d1e63588cac64c81bf1a04aa26d","timestamp":"0x1e6","transactions":[{"blockHash":"0xff580b04a9b17f9a9271b88c6eab3139f4a965de24a08c9c4eea222a9d0ae6fe","blockNumber":"0x30","blockTimestamp":"0x1e6","from":"0x16c57edf7fa9d9525378b0b81bf8a3ced0620c1c","gas":"0x5208","gasPrice":"0x3a9f331","maxFeePerGas":"0x42ff115","maxPriorityFeePerGas":"0x1f4","hash":"0xfc96e88d69d9b1a5f82262e26bba9f3b00abc73650af6c0a78550055bbda7658","input":"0x","nonce":"0x0","to":"0x7dcd17433742f4c0ca53122ab541d0ba67fc27df","transactionIndex":"0x0","value":"0x3e8","type":"0x2","accessList":[],"chainId":"0xc72dd9d5e883e","v":"0x1","r":"0x8c217df89f8b7041a374bf747dfb3ee0a09542c5794941bc154f498a0533ae29","s":"0x99a2ce7c3fa81b418bdb0e0ebb643f2ee5d6ec791e379d957cfaf2037727b33","yParity":"0x1"}],"transactionsRoot":"0xfab5526d3df2b967ca0b1a613a9c13f7aee56bfc295e5b4f903b834460fc5f72","uncles":[],"withdrawals":[],"withdrawalsRoot":"0x56e81f171bcc55a6ff8345e692c0f86e5b48e01b996cadc001622fb5e363b421"}}
>> {"jsonrpc":"2.0","id":2,"method":"eth_sendRawTransaction","params":["0x02f871870c72dd9d5e883e808201f48403a9f331825208947dcd17433742f4c0ca53122ab541d0ba67fc27df8203e880c080a00b07a6d14f7fa9e35e11f88078ff65d86b25843106fd098334b4c37de9e7c89ba048faa649364600bacc4c5a58bc8e263bf34f4fd041e2dde0c35f51e3b4e220f7"]}
<< {"jsonrpc":"2.0","id":2,"result":"0x5970edd3114a7fe94251cfe4853e54c320bf72c54f876fbd6bc062b2e053525a"}
>> {"jsonrpc":"2.0","id":3,"method":"testing_commitBlockV1","params":[{"parentBeaconBlockRoot":"0xcf8e0d4e9587369b2301d0790347320302cc0943d5a1884365149a42212e8822","prevRandao":"0x1111111111111111111111111111111111111111111111111111111111111111","suggestedFeeRecipient":"0x0000000000000000000000000000000000000000","timestamp":"0x1f2","withdrawals":[]},null,"0x"]}
<< {"jsonrpc":"2.0","id":3,"result":"0x32d8a312839bb022b0a4f7626103a394e5a4db0eef333998b99de37bd9cd8b46"}
>> {"jsonrpc":"2.0","id":4,"method":"eth_getBlockByNumber","params":["latest",true]}
<< {"jsonrpc":"2.0","id":4,"result":{"baseFeePerGas":"0x334c3db","blobGasUsed":"0x0","difficulty":"0x0","excessBlobGas":"0x0","extraData":"0x","gasLimit":"0x479ff78","gasUsed":"0x0","hash":"0x32d8a312839bb022b0a4f7626103a394e5a4db0eef333998b99de37bd9cd8b46","logsBloom":"0x00000000000000000000000000000000000000000000000000000000000000000000000000000000000000000000000000000000000000000000000000000000000000000000000000000000000000000000000000000000000000000000000000000000000000000000000000000000000000000000000000000000000000000000000000000000000000000000000000000000000000000000000000000000000000000000000000000000000000000000000000000000000000000000000000000000000000000000000000000000000000000000000000000000000000000000000000000000000000000000000000000000000000000000000000000000","miner":"0x0000000000000000000000000000000000000000","mixHash":"0x1111111111111111111111111111111111111111111111111111111111111111","nonce":"0x0000000000000000","number":"0x31","parentBeaconBlockRoot":"0xcf8e0d4e9587369b2301d0790347320302cc0943d5a1884365149a42212e8822","parentHash":"0xff580b04a9b17f9a9271b88c6eab3139f4a965de24a08c9c4eea222a9d0ae6fe","receiptsRoot":"0x56e81f171bcc55a6ff8345e692c0f86e5b48e01b996cadc001622fb5e363b421","requestsHash":"0xe3b0c44298fc1c149afbf4c8996fb92427ae41e4649b934ca495991b7852b855","sha3Uncles":"0x1dcc4de8dec75d7aab85b567b6ccd41ad312451b948a7413f0a142fd40d49347","size":"0x266","stateRoot":"0x48d1789ca87c36e3baeb94ba2c63a90b003835559a0daa8f46e4f78ce8dc6c70","timestamp":"0x1f2","transactions":[],"transactionsRoot":"0x56e81f171bcc55a6ff8345e692c0f86e5b48e01b996cadc001622fb5e363b421","uncles":[],"withdrawals":[],"withdrawalsRoot":"0x56e81f171bcc55a6ff8345e692c0f86e5b48e01b996cadc001622fb5e363b421"}}
