// commits a block with the specified transactions using testing_commitBlockV1 and advances the canonical head
>> {"jsonrpc":"2.0","id":1,"method":"eth_getBlockByNumber","params":["latest",true]}
<< {"jsonrpc":"2.0","id":1,"result":{"baseFeePerGas":"0x42fef21","blobGasUsed":"0x0","difficulty":"0x0","excessBlobGas":"0x0","extraData":"0x657865637574696f6e2d61706973","gasLimit":"0x47c3d4c","gasUsed":"0x0","hash":"0x2676f95f2fbac4fbee8ef8c43db1d60271d4e62fb248977231a1238af9913b83","logsBloom":"0x00000000000000000000000000000000000000000000000000000000000000000000000000000000000000000000000000000000000000000000000000000000000000000000000000000000000000000000000000000000000000000000000000000000000000000000000000000000000000000000000000000000000000000000000000000000000000000000000000000000000000000000000000000000000000000000000000000000000000000000000000000000000000000000000000000000000000000000000000000000000000000000000000000000000000000000000000000000000000000000000000000000000000000000000000000000","miner":"0x0000000000000000000000000000000000000000","mixHash":"0x1111111111111111111111111111111111111111111111111111111111111111","nonce":"0x0000000000000000","number":"0x2f","parentBeaconBlockRoot":"0xcf8e0d4e9587369b2301d0790347320302cc0943d5a1884365149a42212e8822","parentHash":"0xf716541a4f889e10bf75f9796cc8212f6868f138c6a1c589008d33197edb19b7","receiptsRoot":"0x56e81f171bcc55a6ff8345e692c0f86e5b48e01b996cadc001622fb5e363b421","requestsHash":"0xe3b0c44298fc1c149afbf4c8996fb92427ae41e4649b934ca495991b7852b855","sha3Uncles":"0x1dcc4de8dec75d7aab85b567b6ccd41ad312451b948a7413f0a142fd40d49347","size":"0x274","stateRoot":"0x73ac65ec5d8bbda83a9afb4e0f86862fbc5a456eb144d68d14434c56f495dcd3","timestamp":"0x1da","transactions":[],"transactionsRoot":"0x56e81f171bcc55a6ff8345e692c0f86e5b48e01b996cadc001622fb5e363b421","uncles":[],"withdrawals":[],"withdrawalsRoot":"0x56e81f171bcc55a6ff8345e692c0f86e5b48e01b996cadc001622fb5e363b421"}}
>> {"jsonrpc":"2.0","id":2,"method":"testing_commitBlockV1","params":[{"parentBeaconBlockRoot":"0xcf8e0d4e9587369b2301d0790347320302cc0943d5a1884365149a42212e8822","prevRandao":"0x1111111111111111111111111111111111111111111111111111111111111111","suggestedFeeRecipient":"0x0000000000000000000000000000000000000000","timestamp":"0x1e6","withdrawals":[]},["0x02f871870c72dd9d5e883e808201f484042ff115825208947dcd17433742f4c0ca53122ab541d0ba67fc27df8203e880c001a08c217df89f8b7041a374bf747dfb3ee0a09542c5794941bc154f498a0533ae29a0099a2ce7c3fa81b418bdb0e0ebb643f2ee5d6ec791e379d957cfaf2037727b33"],"0x746573745f6e616d65"]}
<< {"jsonrpc":"2.0","id":2,"result":"0xff580b04a9b17f9a9271b88c6eab3139f4a965de24a08c9c4eea222a9d0ae6fe"}
>> {"jsonrpc":"2.0","id":3,"method":"eth_getBlockByNumber","params":["latest",true]}
<< {"jsonrpc":"2.0","id":3,"result":{"baseFeePerGas":"0x3a9f13d","blobGasUsed":"0x0","difficulty":"0x0","excessBlobGas":"0x0","extraData":"0x746573745f6e616d65","gasLimit":"0x47b1e3e","gasUsed":"0x5208","hash":"0xff580b04a9b17f9a9271b88c6eab3139f4a965de24a08c9c4eea222a9d0ae6fe","logsBloom":"0x00000000000000000000000000000000000000000000000000000000000000000000000000000000000000000000000000000000000000000000000000000000000000000000000000000000000000000000000000000000000000000000000000000000000000000000000000000000000000000000000000000000000000000000000000000000000000000000000000000000000000000000000000000000000000000000000000000000000000000000000000000000000000000000000000000000000000000000000000000000000000000000000000000000000000000000000000000000000000000000000000000000000000000000000000000000","miner":"0x0000000000000000000000000000000000000000","mixHash":"0x1111111111111111111111111111111111111111111111111111111111111111","nonce":"0x0000000000000000","number":"0x30","parentBeaconBlockRoot":"0xcf8e0d4e9587369b2301d0790347320302cc0943d5a1884365149a42212e8822","parentHash":"0x2676f95f2fbac4fbee8ef8c43db1d60271d4e62fb248977231a1238af9913b83","receiptsRoot":"0x005fb2a0d0c8a6f3490f9594e6458703eea515262f1b69a1103492b61e8d0ee2","requestsHash":"0xe3b0c44298fc1c149afbf4c8996fb92427ae41e4649b934ca495991b7852b855","sha3Uncles":"0x1dcc4de8dec75d7aab85b567b6ccd41ad312451b948a7413f0a142fd40d49347","size":"0x2e8","stateRoot":"0xcd29915bf19a7c4eb3558c8dda426e1281af3d1e63588cac64c81bf1a04aa26d","timestamp":"0x1e6","transactions":[{"blockHash":"0xff580b04a9b17f9a9271b88c6eab3139f4a965de24a08c9c4eea222a9d0ae6fe","blockNumber":"0x30","blockTimestamp":"0x1e6","from":"0x16c57edf7fa9d9525378b0b81bf8a3ced0620c1c","gas":"0x5208","gasPrice":"0x3a9f331","maxFeePerGas":"0x42ff115","maxPriorityFeePerGas":"0x1f4","hash":"0xfc96e88d69d9b1a5f82262e26bba9f3b00abc73650af6c0a78550055bbda7658","input":"0x","nonce":"0x0","to":"0x7dcd17433742f4c0ca53122ab541d0ba67fc27df","transactionIndex":"0x0","value":"0x3e8","type":"0x2","accessList":[],"chainId":"0xc72dd9d5e883e","v":"0x1","r":"0x8c217df89f8b7041a374bf747dfb3ee0a09542c5794941bc154f498a0533ae29","s":"0x99a2ce7c3fa81b418bdb0e0ebb643f2ee5d6ec791e379d957cfaf2037727b33","yParity":"0x1"}],"transactionsRoot":"0xfab5526d3df2b967ca0b1a613a9c13f7aee56bfc295e5b4f903b834460fc5f72","uncles":[],"withdrawals":[],"withdrawalsRoot":"0x56e81f171bcc55a6ff8345e692c0f86e5b48e01b996cadc001622fb5e363b421"}}
>> {"jsonrpc":"2.0","id":4,"method":"eth_getBlockByHash","params":["0xff580b04a9b17f9a9271b88c6eab3139f4a965de24a08c9c4eea222a9d0ae6fe",true]}
<< {"jsonrpc":"2.0","id":4,"result":{"baseFeePerGas":"0x3a9f13d","blobGasUsed":"0x0","difficulty":"0x0","excessBlobGas":"0x0","extraData":"0x746573745f6e616d65","gasLimit":"0x47b1e3e","gasUsed":"0x5208","hash":"0xff580b04a9b17f9a9271b88c6eab3139f4a965de24a08c9c4eea222a9d0ae6fe","logsBloom":"0x00000000000000000000000000000000000000000000000000000000000000000000000000000000000000000000000000000000000000000000000000000000000000000000000000000000000000000000000000000000000000000000000000000000000000000000000000000000000000000000000000000000000000000000000000000000000000000000000000000000000000000000000000000000000000000000000000000000000000000000000000000000000000000000000000000000000000000000000000000000000000000000000000000000000000000000000000000000000000000000000000000000000000000000000000000000","miner":"0x0000000000000000000000000000000000000000","mixHash":"0x1111111111111111111111111111111111111111111111111111111111111111","nonce":"0x0000000000000000","number":"0x30","parentBeaconBlockRoot":"0xcf8e0d4e9587369b2301d0790347320302cc0943d5a1884365149a42212e8822","parentHash":"0x2676f95f2fbac4fbee8ef8c43db1d60271d4e62fb248977231a1238af9913b83","receiptsRoot":"0x005fb2a0d0c8a6f3490f9594e6458703eea515262f1b69a1103492b61e8d0ee2","requestsHash":"0xe3b0c44298fc1c149afbf4c8996fb92427ae41e4649b934ca495991b7852b855","sha3Uncles":"0x1dcc4de8dec75d7aab85b567b6ccd41ad312451b948a7413f0a142fd40d49347","size":"0x2e8","stateRoot":"0xcd29915bf19a7c4eb3558c8dda426e1281af3d1e63588cac64c81bf1a04aa26d","timestamp":"0x1e6","transactions":[{"blockHash":"0xff580b04a9b17f9a9271b88c6eab3139f4a965de24a08c9c4eea222a9d0ae6fe","blockNumber":"0x30","blockTimestamp":"0x1e6","from":"0x16c57edf7fa9d9525378b0b81bf8a3ced0620c1c","gas":"0x5208","gasPrice":"0x3a9f331","maxFeePerGas":"0x42ff115","maxPriorityFeePerGas":"0x1f4","hash":"0xfc96e88d69d9b1a5f82262e26bba9f3b00abc73650af6c0a78550055bbda7658","input":"0x","nonce":"0x0","to":"0x7dcd17433742f4c0ca53122ab541d0ba67fc27df","transactionIndex":"0x0","value":"0x3e8","type":"0x2","accessList":[],"chainId":"0xc72dd9d5e883e","v":"0x1","r":"0x8c217df89f8b7041a374bf747dfb3ee0a09542c5794941bc154f498a0533ae29","s":"0x99a2ce7c3fa81b418bdb0e0ebb643f2ee5d6ec791e379d957cfaf2037727b33","yParity":"0x1"}],"transactionsRoot":"0xfab5526d3df2b967ca0b1a613a9c13f7aee56bfc295e5b4f903b834460fc5f72","uncles":[],"withdrawals":[],"withdrawalsRoot":"0x56e81f171bcc55a6ff8345e692c0f86e5b48e01b996cadc001622fb5e363b421"}}
