// commits a block with the specified transactions using testing_commitBlockV1 and advances the canonical head
>> {"jsonrpc":"2.0","id":1,"method":"eth_getBlockByNumber","params":["latest",true]}
<< {"jsonrpc":"2.0","id":1,"result":{"baseFeePerGas":"0x1403ec8","blobGasUsed":"0x0","difficulty":"0x0","excessBlobGas":"0x0","extraData":"0x657865637574696f6e2d61706973","gasLimit":"0xbe5cce1","gasUsed":"0x0","hash":"0xb8668d5b519d2709ffdf214111181d20121ded76821f60a1f6a8255299c4840c","logsBloom":"0x00000000000000000000000000000000000000000000000000000000000000000000000000000000000000000000000000000000000000000000000000000000000000000000000000000000000000000000000000000000000000000000000000000000000000000000000000000000000000000000000000000000000000000000000000000000000000000000000000000000000000000000000000000000000000000000000000000000000000000000000000000000000000000000000000000000000000000000000000000000000000000000000000000000000000000000000000000000000000000000000000000000000000000000000000000000","miner":"0x0000000000000000000000000000000000000000","mixHash":"0x1111111111111111111111111111111111111111111111111111111111111111","nonce":"0x0000000000000000","number":"0x38","parentBeaconBlockRoot":"0xcf8e0d4e9587369b2301d0790347320302cc0943d5a1884365149a42212e8822","parentHash":"0x3635a27d1a4730b9448f7077d14ce6a349b6818d58db5b1b0db0f23d247ce244","receiptsRoot":"0x56e81f171bcc55a6ff8345e692c0f86e5b48e01b996cadc001622fb5e363b421","requestsHash":"0xe3b0c44298fc1c149afbf4c8996fb92427ae41e4649b934ca495991b7852b855","sha3Uncles":"0x1dcc4de8dec75d7aab85b567b6ccd41ad312451b948a7413f0a142fd40d49347","size":"0x274","stateRoot":"0x76f077ad3c320e09b65fb2587d1e1f39b1abad744968e6484f104a4b78ea1815","timestamp":"0x234","transactions":[],"transactionsRoot":"0x56e81f171bcc55a6ff8345e692c0f86e5b48e01b996cadc001622fb5e363b421","uncles":[],"withdrawals":[],"withdrawalsRoot":"0x56e81f171bcc55a6ff8345e692c0f86e5b48e01b996cadc001622fb5e363b421"}}
>> {"jsonrpc":"2.0","id":2,"method":"testing_commitBlockV1","params":[{"parentBeaconBlockRoot":"0xcf8e0d4e9587369b2301d0790347320302cc0943d5a1884365149a42212e8822","prevRandao":"0x1111111111111111111111111111111111111111111111111111111111111111","suggestedFeeRecipient":"0x0000000000000000000000000000000000000000","timestamp":"0x240","withdrawals":[]},["0x02f871870c72dd9d5e883e808201f484014040bc825208947dcd17433742f4c0ca53122ab541d0ba67fc27df8203e880c001a025678bdf2515065155872b26843bc1c2cb4183c5544426149e13686c827a6c3ba06e7121a9b49731acc50ab0d9cd31a2eb5e3e70ab43c9eadacada2c13b71e2978"],"0x746573745f6e616d65"]}
<< {"jsonrpc":"2.0","id":2,"result":"0xfc9f5dd040afacf4aec3de317befb4059227f352bc1f1425ea8ae3ad1a5b28d8"}
>> {"jsonrpc":"2.0","id":3,"method":"eth_getBlockByNumber","params":["latest",true]}
<< {"jsonrpc":"2.0","id":3,"result":{"baseFeePerGas":"0x11836ef","blobGasUsed":"0x0","difficulty":"0x0","excessBlobGas":"0x0","extraData":"0x746573745f6e616d65","gasLimit":"0xbe2d36f","gasUsed":"0x5208","hash":"0xfc9f5dd040afacf4aec3de317befb4059227f352bc1f1425ea8ae3ad1a5b28d8","logsBloom":"0x00000000000000000000000000000000000000000000000000000000000000000000000000000000000000000000000000000000000000000000000000000000000000000000000000000000000000000000000000000000000000000000000000000000000000000000000000000000000000000000000000000000000000000000000000000000000000000000000000000000000000000000000000000000000000000000000000000000000000000000000000000000000000000000000000000000000000000000000000000000000000000000000000000000000000000000000000000000000000000000000000000000000000000000000000000000","miner":"0x0000000000000000000000000000000000000000","mixHash":"0x1111111111111111111111111111111111111111111111111111111111111111","nonce":"0x0000000000000000","number":"0x39","parentBeaconBlockRoot":"0xcf8e0d4e9587369b2301d0790347320302cc0943d5a1884365149a42212e8822","parentHash":"0xb8668d5b519d2709ffdf214111181d20121ded76821f60a1f6a8255299c4840c","receiptsRoot":"0x005fb2a0d0c8a6f3490f9594e6458703eea515262f1b69a1103492b61e8d0ee2","requestsHash":"0xe3b0c44298fc1c149afbf4c8996fb92427ae41e4649b934ca495991b7852b855","sha3Uncles":"0x1dcc4de8dec75d7aab85b567b6ccd41ad312451b948a7413f0a142fd40d49347","size":"0x2e8","stateRoot":"0xe1c81f0297585a139492b68bb96e0f299b5448f9800fb4810f5f5e5dbfa0d984","timestamp":"0x240","transactions":[{"blockHash":"0xfc9f5dd040afacf4aec3de317befb4059227f352bc1f1425ea8ae3ad1a5b28d8","blockNumber":"0x39","blockTimestamp":"0x240","from":"0x16c57edf7fa9d9525378b0b81bf8a3ced0620c1c","gas":"0x5208","gasPrice":"0x11838e3","maxFeePerGas":"0x14040bc","maxPriorityFeePerGas":"0x1f4","hash":"0xe4db2b1921a8fba32132c5b13e6de8170f0bcf7fcb6d149f24eada3ec137996f","input":"0x","nonce":"0x0","to":"0x7dcd17433742f4c0ca53122ab541d0ba67fc27df","transactionIndex":"0x0","value":"0x3e8","type":"0x2","accessList":[],"chainId":"0xc72dd9d5e883e","v":"0x1","r":"0x25678bdf2515065155872b26843bc1c2cb4183c5544426149e13686c827a6c3b","s":"0x6e7121a9b49731acc50ab0d9cd31a2eb5e3e70ab43c9eadacada2c13b71e2978","yParity":"0x1"}],"transactionsRoot":"0x5350c310b51d31d54d003258bbbe2a43b06471e3d06b0107998d11cee6ec67d3","uncles":[],"withdrawals":[],"withdrawalsRoot":"0x56e81f171bcc55a6ff8345e692c0f86e5b48e01b996cadc001622fb5e363b421"}}
>> {"jsonrpc":"2.0","id":4,"method":"eth_getBlockByHash","params":["0xfc9f5dd040afacf4aec3de317befb4059227f352bc1f1425ea8ae3ad1a5b28d8",true]}
<< {"jsonrpc":"2.0","id":4,"result":{"baseFeePerGas":"0x11836ef","blobGasUsed":"0x0","difficulty":"0x0","excessBlobGas":"0x0","extraData":"0x746573745f6e616d65","gasLimit":"0xbe2d36f","gasUsed":"0x5208","hash":"0xfc9f5dd040afacf4aec3de317befb4059227f352bc1f1425ea8ae3ad1a5b28d8","logsBloom":"0x00000000000000000000000000000000000000000000000000000000000000000000000000000000000000000000000000000000000000000000000000000000000000000000000000000000000000000000000000000000000000000000000000000000000000000000000000000000000000000000000000000000000000000000000000000000000000000000000000000000000000000000000000000000000000000000000000000000000000000000000000000000000000000000000000000000000000000000000000000000000000000000000000000000000000000000000000000000000000000000000000000000000000000000000000000000","miner":"0x0000000000000000000000000000000000000000","mixHash":"0x1111111111111111111111111111111111111111111111111111111111111111","nonce":"0x0000000000000000","number":"0x39","parentBeaconBlockRoot":"0xcf8e0d4e9587369b2301d0790347320302cc0943d5a1884365149a42212e8822","parentHash":"0xb8668d5b519d2709ffdf214111181d20121ded76821f60a1f6a8255299c4840c","receiptsRoot":"0x005fb2a0d0c8a6f3490f9594e6458703eea515262f1b69a1103492b61e8d0ee2","requestsHash":"0xe3b0c44298fc1c149afbf4c8996fb92427ae41e4649b934ca495991b7852b855","sha3Uncles":"0x1dcc4de8dec75d7aab85b567b6ccd41ad312451b948a7413f0a142fd40d49347","size":"0x2e8","stateRoot":"0xe1c81f0297585a139492b68bb96e0f299b5448f9800fb4810f5f5e5dbfa0d984","timestamp":"0x240","transactions":[{"blockHash":"0xfc9f5dd040afacf4aec3de317befb4059227f352bc1f1425ea8ae3ad1a5b28d8","blockNumber":"0x39","blockTimestamp":"0x240","from":"0x16c57edf7fa9d9525378b0b81bf8a3ced0620c1c","gas":"0x5208","gasPrice":"0x11838e3","maxFeePerGas":"0x14040bc","maxPriorityFeePerGas":"0x1f4","hash":"0xe4db2b1921a8fba32132c5b13e6de8170f0bcf7fcb6d149f24eada3ec137996f","input":"0x","nonce":"0x0","to":"0x7dcd17433742f4c0ca53122ab541d0ba67fc27df","transactionIndex":"0x0","value":"0x3e8","type":"0x2","accessList":[],"chainId":"0xc72dd9d5e883e","v":"0x1","r":"0x25678bdf2515065155872b26843bc1c2cb4183c5544426149e13686c827a6c3b","s":"0x6e7121a9b49731acc50ab0d9cd31a2eb5e3e70ab43c9eadacada2c13b71e2978","yParity":"0x1"}],"transactionsRoot":"0x5350c310b51d31d54d003258bbbe2a43b06471e3d06b0107998d11cee6ec67d3","uncles":[],"withdrawals":[],"withdrawalsRoot":"0x56e81f171bcc55a6ff8345e692c0f86e5b48e01b996cadc001622fb5e363b421"}}
